{
  "address": "0xdEE0dCD197b7c5fe04834f3B35b8F2137e1725A2",
  "abi": [
    {
      "inputs": [
        {
          "internalType": "address",
          "name": "_treasury",
          "type": "address"
        },
        {
          "internalType": "address",
          "name": "_agbToken",
          "type": "address"
        },
        {
          "internalType": "address",
          "name": "_starTicket",
          "type": "address"
        }
      ],
      "stateMutability": "nonpayable",
      "type": "constructor"
    },
    {
      "anonymous": false,
      "inputs": [
        {
          "indexed": false,
          "internalType": "uint256",
          "name": "betId",
          "type": "uint256"
        },
        {
          "indexed": false,
          "internalType": "uint256",
          "name": "matchId",
          "type": "uint256"
        },
        {
          "indexed": false,
          "internalType": "uint8",
          "name": "betType",
          "type": "uint8"
        },
        {
          "indexed": false,
          "internalType": "uint8",
          "name": "betResult",
          "type": "uint8"
        },
        {
          "indexed": false,
          "internalType": "uint16",
          "name": "oddsBet",
          "type": "uint16"
        },
        {
          "indexed": false,
          "internalType": "uint256",
          "name": "amount",
          "type": "uint256"
        },
        {
          "indexed": false,
          "internalType": "uint8",
          "name": "starTicketId",
          "type": "uint8"
        },
        {
          "indexed": false,
          "internalType": "address",
          "name": "user",
          "type": "address"
        },
        {
          "indexed": false,
          "internalType": "bool",
          "name": "isClaim",
          "type": "bool"
        }
      ],
      "name": "BetStatus",
      "type": "event"
    },
    {
      "anonymous": false,
      "inputs": [
        {
          "indexed": false,
          "internalType": "uint256",
          "name": "itemId",
          "type": "uint256"
        },
        {
          "indexed": false,
          "internalType": "string",
          "name": "matchCode",
          "type": "string"
        },
        {
          "indexed": false,
          "internalType": "uint8",
          "name": "firstHalfResult",
          "type": "uint8"
        },
        {
          "indexed": false,
          "internalType": "uint8",
          "name": "secondHalfResult",
          "type": "uint8"
        },
        {
          "indexed": false,
          "internalType": "uint8",
          "name": "fulltimeResult",
          "type": "uint8"
        }
      ],
      "name": "MatchStatus",
      "type": "event"
    },
    {
      "anonymous": false,
      "inputs": [
        {
          "indexed": true,
          "internalType": "address",
          "name": "previousOwner",
          "type": "address"
        },
        {
          "indexed": true,
          "internalType": "address",
          "name": "newOwner",
          "type": "address"
        }
      ],
      "name": "OwnershipTransferred",
      "type": "event"
    },
    {
      "inputs": [],
      "name": "agbToken",
      "outputs": [
        {
          "internalType": "address",
          "name": "",
          "type": "address"
        }
      ],
      "stateMutability": "view",
      "type": "function"
    },
    {
      "inputs": [],
      "name": "betIds",
      "outputs": [
        {
          "internalType": "uint256",
          "name": "_value",
          "type": "uint256"
        }
      ],
      "stateMutability": "view",
      "type": "function"
    },
    {
      "inputs": [
        {
          "internalType": "string",
          "name": "_matchCode",
          "type": "string"
        }
      ],
      "name": "createMatch",
      "outputs": [],
      "stateMutability": "nonpayable",
      "type": "function"
    },
    {
      "inputs": [
        {
          "internalType": "uint256",
          "name": "_matchId",
          "type": "uint256"
        },
        {
          "internalType": "uint8",
          "name": "_betType",
          "type": "uint8"
        },
        {
          "internalType": "uint8",
          "name": "_betResult",
          "type": "uint8"
        },
        {
          "internalType": "uint256",
          "name": "_amount",
          "type": "uint256"
        },
        {
          "internalType": "uint256",
          "name": "_oddsBet",
          "type": "uint256"
        }
      ],
      "name": "getMessageHash",
      "outputs": [
        {
          "internalType": "bytes32",
          "name": "",
          "type": "bytes32"
        }
      ],
      "stateMutability": "pure",
      "type": "function"
    },
    {
      "inputs": [
        {
          "internalType": "uint256",
          "name": "",
          "type": "uint256"
        }
      ],
      "name": "idToBetInfo",
      "outputs": [
        {
          "internalType": "uint256",
          "name": "betId",
          "type": "uint256"
        },
        {
          "internalType": "uint256",
          "name": "matchId",
          "type": "uint256"
        },
        {
          "internalType": "uint8",
          "name": "betType",
          "type": "uint8"
        },
        {
          "internalType": "uint8",
          "name": "betResult",
          "type": "uint8"
        },
        {
          "internalType": "uint16",
          "name": "oddsBet",
          "type": "uint16"
        },
        {
          "internalType": "uint256",
          "name": "amount",
          "type": "uint256"
        },
        {
          "internalType": "uint8",
          "name": "starTicketId",
          "type": "uint8"
        },
        {
          "internalType": "address",
          "name": "user",
          "type": "address"
        },
        {
          "internalType": "bool",
          "name": "isClaim",
          "type": "bool"
        }
      ],
      "stateMutability": "view",
      "type": "function"
    },
    {
      "inputs": [
        {
          "internalType": "uint256",
          "name": "",
          "type": "uint256"
        }
      ],
      "name": "idToMatchInfo",
      "outputs": [
        {
          "internalType": "uint256",
          "name": "itemId",
          "type": "uint256"
        },
        {
          "internalType": "string",
          "name": "matchCode",
          "type": "string"
        },
        {
          "internalType": "uint8",
          "name": "firstHalfResult",
          "type": "uint8"
        },
        {
          "internalType": "uint8",
          "name": "secondHalfResult",
          "type": "uint8"
        },
        {
          "internalType": "uint8",
          "name": "fulltimeResult",
          "type": "uint8"
        }
      ],
      "stateMutability": "view",
      "type": "function"
    },
    {
      "inputs": [],
      "name": "matchIds",
      "outputs": [
        {
          "internalType": "uint256",
          "name": "_value",
          "type": "uint256"
        }
      ],
      "stateMutability": "view",
      "type": "function"
    },
    {
      "inputs": [],
      "name": "owner",
      "outputs": [
        {
          "internalType": "address",
          "name": "",
          "type": "address"
        }
      ],
      "stateMutability": "view",
      "type": "function"
    },
    {
      "inputs": [],
      "name": "renounceOwnership",
      "outputs": [],
      "stateMutability": "nonpayable",
      "type": "function"
    },
    {
      "inputs": [],
      "name": "starTicket",
      "outputs": [
        {
          "internalType": "address",
          "name": "",
          "type": "address"
        }
      ],
      "stateMutability": "view",
      "type": "function"
    },
    {
      "inputs": [
        {
          "internalType": "address",
          "name": "newOwner",
          "type": "address"
        }
      ],
      "name": "transferOwnership",
      "outputs": [],
      "stateMutability": "nonpayable",
      "type": "function"
    },
    {
      "inputs": [],
      "name": "treasury",
      "outputs": [
        {
          "internalType": "address",
          "name": "",
          "type": "address"
        }
      ],
      "stateMutability": "view",
      "type": "function"
    },
    {
      "inputs": [
        {
          "internalType": "uint256",
          "name": "_matchId",
          "type": "uint256"
        },
        {
          "internalType": "uint8",
          "name": "_result",
          "type": "uint8"
        }
      ],
      "name": "updateFirstHalf",
      "outputs": [],
      "stateMutability": "nonpayable",
      "type": "function"
    },
    {
      "inputs": [
        {
          "internalType": "uint256",
          "name": "_matchId",
          "type": "uint256"
        },
        {
          "internalType": "uint8",
          "name": "_result",
          "type": "uint8"
        }
      ],
      "name": "updateFulltime",
      "outputs": [],
      "stateMutability": "nonpayable",
      "type": "function"
    },
    {
      "inputs": [
        {
          "internalType": "uint256",
          "name": "_matchId",
          "type": "uint256"
        },
        {
          "internalType": "uint8",
          "name": "_result",
          "type": "uint8"
        }
      ],
      "name": "updateSecondHalf",
      "outputs": [],
      "stateMutability": "nonpayable",
      "type": "function"
    },
    {
      "inputs": [
        {
          "internalType": "uint256",
          "name": "_matchId",
          "type": "uint256"
        },
        {
          "internalType": "uint8",
          "name": "_betType",
          "type": "uint8"
        },
        {
          "internalType": "uint256",
          "name": "_amount",
          "type": "uint256"
        },
        {
          "internalType": "uint16",
          "name": "_oddsBet",
          "type": "uint16"
        },
        {
          "internalType": "uint8",
          "name": "_betResult",
          "type": "uint8"
        },
        {
          "internalType": "uint8",
          "name": "_starTicketId",
          "type": "uint8"
        },
        {
          "internalType": "bytes",
          "name": "_hashedMessage",
          "type": "bytes"
        }
      ],
      "name": "userBet",
      "outputs": [],
      "stateMutability": "nonpayable",
      "type": "function"
    },
    {
      "inputs": [
        {
          "internalType": "uint256",
          "name": "_betId",
          "type": "uint256"
        }
      ],
      "name": "userClaim",
      "outputs": [],
      "stateMutability": "nonpayable",
      "type": "function"
    }
  ],
  "transactionHash": "0x86efcf633a171c5b1c30da56612bedd9ec8ff86337ba2d7d7907296bb91559a6",
  "args": [
    "0x3A50F08F2BA03677A479F4387eDe33C54454F356",
    "0xaf9412eFD48F534ecc06cA42391a7D3c49F92B66",
    "0x9666Cfb212590A2E1ea5f9609cACD279D3357256"
  ],
  "solcInputHash": "fdc16aadb32c9a654c8ad9520d4ac359",
  "bytecode": "0x60806040523480156200001157600080fd5b5060405162002870380380620028708339810160408190526200003491620000ef565b6200003f3362000082565b600380546001600160a01b039485166001600160a01b03199182161790915560048054938516938216939093179092556005805491909316911617905562000139565b600080546001600160a01b038381166001600160a01b0319831681178455604051919092169283917f8be0079c531659141344cd1fd0a4f28419497f9722a3daafe3b4186f6b6457e09190a35050565b80516001600160a01b0381168114620000ea57600080fd5b919050565b6000806000606084860312156200010557600080fd5b6200011084620000d2565b92506200012060208501620000d2565b91506200013060408501620000d2565b90509250925092565b61272780620001496000396000f3fe608060405234801561001057600080fd5b506004361061011b5760003560e01c80638da5cb5b116100b2578063b5182fc211610081578063e388eeb111610066578063e388eeb1146103e4578063f2fde38b146103ee578063fe43efda1461040157600080fd5b8063b5182fc2146103b1578063bc0e7a74146103c457600080fd5b80638da5cb5b146103635780638e292aa8146103815780639fda6edc14610394578063b49bf5d9146103a757600080fd5b80635762b50c116100ee5780635762b50c1461023257806361d027b31461024557806362f8414b14610265578063715018a61461035b57600080fd5b806304f5b230146101205780632156430c1461014d578063251e754d146101625780633e1f9320146101ed575b600080fd5b61013361012e366004612208565b610414565b60405161014495949392919061228c565b60405180910390f35b61016061015b3660046122df565b6104d5565b005b6101df61017036600461230b565b604080516020808201979097527fff0000000000000000000000000000000000000000000000000000000000000060f896871b8116828401529490951b909316604185015260428401919091526062808401919091528151808403909101815260829092019052805191012090565b604051908152602001610144565b60055461020d9073ffffffffffffffffffffffffffffffffffffffff1681565b60405173ffffffffffffffffffffffffffffffffffffffff9091168152602001610144565b61016061024036600461241c565b61073c565b60035461020d9073ffffffffffffffffffffffffffffffffffffffff1681565b6102f3610273366004612208565b600760205260009081526040902080546001820154600283015460038401546004909401549293919260ff8083169361010080850483169462010000900461ffff169391928083169291820473ffffffffffffffffffffffffffffffffffffffff1691750100000000000000000000000000000000000000000090041689565b60408051998a5260208a019890985260ff96871697890197909752938516606088015261ffff909216608087015260a08601529190911660c084015273ffffffffffffffffffffffffffffffffffffffff1660e0830152151561010082015261012001610144565b6101606108e9565b60005473ffffffffffffffffffffffffffffffffffffffff1661020d565b61016061038f3660046122df565b610976565b6101606103a23660046122df565b610c40565b6002546101df9081565b6101606103bf36600461247d565b610f80565b60045461020d9073ffffffffffffffffffffffffffffffffffffffff1681565b6001546101df9081565b6101606103fc366004612526565b6116e2565b61016061040f366004612208565b611812565b6006602052600090815260409020805460018201805491929161043690612563565b80601f016020809104026020016040519081016040528092919081815260200182805461046290612563565b80156104af5780601f10610484576101008083540402835291602001916104af565b820191906000526020600020905b81548152906001019060200180831161049257829003601f168201915b5050506002909301549192505060ff808216916101008104821691620100009091041685565b60005473ffffffffffffffffffffffffffffffffffffffff16331461055b576040517f08c379a000000000000000000000000000000000000000000000000000000000815260206004820181905260248201527f4f776e61626c653a2063616c6c6572206973206e6f7420746865206f776e657260448201526064015b60405180910390fd5b6000600660008481526020019081526020016000206040518060a00160405290816000820154815260200160018201805461059590612563565b80601f01602080910402602001604051908101604052809291908181526020018280546105c190612563565b801561060e5780601f106105e35761010080835404028352916020019161060e565b820191906000526020600020905b8154815290600101906020018083116105f157829003601f168201915b50505091835250506002919091015460ff80821660208401526101008204811660408085019190915262010000909204811660609093019290925282015191925016156106b7576040517f08c379a000000000000000000000000000000000000000000000000000000000815260206004820152601660248201527f46697273742068616c66207761732075706461746564000000000000000000006044820152606401610552565b600083815260066020908152604080832060020180547fffffffffffffffffffffffffffffffffffffffffffffffffffffffffffffff001660ff87161790559083015190517fccea705e41addfe441189b24872e69bc5ff6e968cd49909c25c36681f334e24e9261072f92879290918791819061228c565b60405180910390a1505050565b60005473ffffffffffffffffffffffffffffffffffffffff1633146107bd576040517f08c379a000000000000000000000000000000000000000000000000000000000815260206004820181905260248201527f4f776e61626c653a2063616c6c6572206973206e6f7420746865206f776e65726044820152606401610552565b60006107c860015490565b6040805160a08101825282815260208082018681526000838501819052606084018190526080840181905285815260068352939093208251815592518051949550919361081b926001850192019061216f565b50604082015160029091018054606084015160809094015160ff90811662010000027fffffffffffffffffffffffffffffffffffffffffffffffffffffffffff00ffff958216610100027fffffffffffffffffffffffffffffffffffffffffffffffffffffffffffff0000909316919094161717929092161790556108a4600180546001019055565b7fccea705e41addfe441189b24872e69bc5ff6e968cd49909c25c36681f334e24e818360008060006040516108dd95949392919061228c565b60405180910390a15050565b60005473ffffffffffffffffffffffffffffffffffffffff16331461096a576040517f08c379a000000000000000000000000000000000000000000000000000000000815260206004820181905260248201527f4f776e61626c653a2063616c6c6572206973206e6f7420746865206f776e65726044820152606401610552565b6109746000611ee8565b565b60005473ffffffffffffffffffffffffffffffffffffffff1633146109f7576040517f08c379a000000000000000000000000000000000000000000000000000000000815260206004820181905260248201527f4f776e61626c653a2063616c6c6572206973206e6f7420746865206f776e65726044820152606401610552565b6000600660008481526020019081526020016000206040518060a001604052908160008201548152602001600182018054610a3190612563565b80601f0160208091040260200160405190810160405280929190818152602001828054610a5d90612563565b8015610aaa5780601f10610a7f57610100808354040283529160200191610aaa565b820191906000526020600020905b815481529060010190602001808311610a8d57829003601f168201915b50505091835250506002919091015460ff80821660208401526101008204811660408085019190915262010000909204811660609093019290925282015191925016610b52576040517f08c379a000000000000000000000000000000000000000000000000000000000815260206004820152601a60248201527f46697273742068616c6620776173206e6f7420757064617465640000000000006044820152606401610552565b606081015160ff1615610bc1576040517f08c379a000000000000000000000000000000000000000000000000000000000815260206004820152601760248201527f5365636f6e642068616c662077617320757064617465640000000000000000006044820152606401610552565b600083815260066020908152604080832060020180547fffffffffffffffffffffffffffffffffffffffffffffffffffffffffffff00ff1661010060ff881602179055908301518382015191517fccea705e41addfe441189b24872e69bc5ff6e968cd49909c25c36681f334e24e9361072f938893929091889161228c565b60005473ffffffffffffffffffffffffffffffffffffffff163314610cc1576040517f08c379a000000000000000000000000000000000000000000000000000000000815260206004820181905260248201527f4f776e61626c653a2063616c6c6572206973206e6f7420746865206f776e65726044820152606401610552565b6000600660008481526020019081526020016000206040518060a001604052908160008201548152602001600182018054610cfb90612563565b80601f0160208091040260200160405190810160405280929190818152602001828054610d2790612563565b8015610d745780601f10610d4957610100808354040283529160200191610d74565b820191906000526020600020905b815481529060010190602001808311610d5757829003601f168201915b50505091835250506002919091015460ff80821660208401526101008204811660408085019190915262010000909204811660609093019290925282015191925016610e1c576040517f08c379a000000000000000000000000000000000000000000000000000000000815260206004820152601a60248201527f46697273742068616c6620776173206e6f7420757064617465640000000000006044820152606401610552565b606081015160ff16610e8a576040517f08c379a000000000000000000000000000000000000000000000000000000000815260206004820152601b60248201527f5365636f6e642068616c6620776173206e6f74207570646174656400000000006044820152606401610552565b608081015160ff1615610ef9576040517f08c379a000000000000000000000000000000000000000000000000000000000815260206004820152601460248201527f46756c6c74696d652077617320757064617465640000000000000000000000006044820152606401610552565b60008381526006602090815260409182902060020180547fffffffffffffffffffffffffffffffffffffffffffffffffffffffffff00ffff166201000060ff87160217905582015182820151606084015192517fccea705e41addfe441189b24872e69bc5ff6e968cd49909c25c36681f334e24e9361072f9388939092909190889061228c565b6000600660008981526020019081526020016000206040518060a001604052908160008201548152602001600182018054610fba90612563565b80601f0160208091040260200160405190810160405280929190818152602001828054610fe690612563565b80156110335780601f1061100857610100808354040283529160200191611033565b820191906000526020600020905b81548152906001019060200180831161101657829003601f168201915b50505091835250506002919091015460ff808216602084015261010082048116604084015262010000909104811660609092019190915290915084166110d5576040517f08c379a000000000000000000000000000000000000000000000000000000000815260206004820152601a60248201527f546869732062657420726573756c7420697320696e76616c69640000000000006044820152606401610552565b600160ff88161580156110ee5750604082015160ff1615155b156110f7575060005b60ff881660011480156111105750606082015160ff1615155b15611119575060005b60ff881660021480156111325750608082015160ff1615155b1561113b575060005b806111a2576040517f08c379a000000000000000000000000000000000000000000000000000000000815260206004820152601f60248201527f546869732062657420696e666f726d6174696f6e20697320696e76616c6964006044820152606401610552565b6111d36111c460005473ffffffffffffffffffffffffffffffffffffffff1690565b8a8a888b8b61ffff1689611f5d565b90508061123c576040517f08c379a000000000000000000000000000000000000000000000000000000000815260206004820152601d60248201527f5468697320626574207369676e617475726520697320696e76616c69640000006044820152606401610552565b60ff841615611355576005546040517efdd58e00000000000000000000000000000000000000000000000000000000815233600482015260ff8616602482015260009173ffffffffffffffffffffffffffffffffffffffff169062fdd58e9060440160206040518083038186803b1580156112b657600080fd5b505afa1580156112ca573d6000803e3d6000fd5b505050506040513d601f19601f820116820180604052508101906112ee91906125b7565b11611355576040517f08c379a000000000000000000000000000000000000000000000000000000000815260206004820152601660248201527f53746172207469636b657420697320696e76616c6964000000000000000000006044820152606401610552565b600061136060025490565b90506040518061012001604052808281526020018b81526020018a60ff1681526020018760ff1681526020018861ffff1681526020018981526020018660ff1681526020013373ffffffffffffffffffffffffffffffffffffffff1681526020016000151581525060076000838152602001908152602001600020600082015181600001556020820151816001015560408201518160020160006101000a81548160ff021916908360ff16021790555060608201518160020160016101000a81548160ff021916908360ff16021790555060808201518160020160026101000a81548161ffff021916908361ffff16021790555060a0820151816003015560c08201518160040160006101000a81548160ff021916908360ff16021790555060e08201518160040160016101000a81548173ffffffffffffffffffffffffffffffffffffffff021916908373ffffffffffffffffffffffffffffffffffffffff1602179055506101008201518160040160156101000a81548160ff0219169083151502179055509050506114f8600280546001019055565b600480546003546040517f23b872dd000000000000000000000000000000000000000000000000000000008152339381019390935273ffffffffffffffffffffffffffffffffffffffff9081166024840152604483018b905216906323b872dd90606401602060405180830381600087803b15801561157657600080fd5b505af115801561158a573d6000803e3d6000fd5b505050506040513d601f19601f820116820180604052508101906115ae91906125d0565b5060ff851615611664576005546003546040517ff242432a00000000000000000000000000000000000000000000000000000000815233600482015273ffffffffffffffffffffffffffffffffffffffff918216602482015260ff881660448201526001606482015260a06084820152600060a482015291169063f242432a9060c401600060405180830381600087803b15801561164b57600080fd5b505af115801561165f573d6000803e3d6000fd5b505050505b60408051828152602081018c905260ff8b811682840152888116606083015261ffff8a16608083015260a082018b9052871660c08201523360e0820152600061010082015290517febea08cae94449583286e8c7d521b8dd41dff5c8ee617ac5a4f07a23e6afbf5d918190036101200190a150505050505050505050565b60005473ffffffffffffffffffffffffffffffffffffffff163314611763576040517f08c379a000000000000000000000000000000000000000000000000000000000815260206004820181905260248201527f4f776e61626c653a2063616c6c6572206973206e6f7420746865206f776e65726044820152606401610552565b73ffffffffffffffffffffffffffffffffffffffff8116611806576040517f08c379a000000000000000000000000000000000000000000000000000000000815260206004820152602660248201527f4f776e61626c653a206e6577206f776e657220697320746865207a65726f206160448201527f64647265737300000000000000000000000000000000000000000000000000006064820152608401610552565b61180f81611ee8565b50565b6000818152600760209081526040808320600180820154855260068452828520835160a0810190945280548452908101805492959491929184019161185690612563565b80601f016020809104026020016040519081016040528092919081815260200182805461188290612563565b80156118cf5780601f106118a4576101008083540402835291602001916118cf565b820191906000526020600020905b8154815290600101906020018083116118b257829003601f168201915b50505091835250506002919091015460ff80821660208401526101008083048216604085015262010000909204166060909201919091526004840154919250900473ffffffffffffffffffffffffffffffffffffffff16331461198e576040517f08c379a000000000000000000000000000000000000000000000000000000000815260206004820152601d60248201527f596f7520617265206e6f74206f776e6572206f662074686973206265740000006044820152606401610552565b600282015460019060ff161580156119ab5750604082015160ff16155b156119b4575060005b600283015460ff1660011480156119d05750606082015160ff16155b156119d9575060005b60028381015460ff161480156119f45750608082015160ff16155b156119fd575060005b80611a8a576040517f08c379a000000000000000000000000000000000000000000000000000000000815260206004820152602160248201527f5468697320636c61696d20696e666f726d6174696f6e20697320696e76616c6960448201527f64000000000000000000000000000000000000000000000000000000000000006064820152608401610552565b60048301547501000000000000000000000000000000000000000000900460ff1615611b12576040517f08c379a000000000000000000000000000000000000000000000000000000000815260206004820152600c60248201527f5573657220636c61696d656400000000000000000000000000000000000000006044820152606401610552565b600283015460009060ff16158015611b3d575060408301516002850154610100900460ff9081169116145b15611b46575060015b600284015460ff166001148015611b70575060608301516002850154610100900460ff9081169116145b15611b79575060015b60028481015460ff16148015611ba2575060808301516002850154610100900460ff9081169116145b15611bab575060015b80611c12576040517f08c379a000000000000000000000000000000000000000000000000000000000815260206004820152600860248201527f596f75206c6f73650000000000000000000000000000000000000000000000006044820152606401610552565b6004840180547fffffffffffffffffffff00ffffffffffffffffffffffffffffffffffffffffff811675010000000000000000000000000000000000000000001790915560009060ff1615611d11576005546004868101546040517f6fa08af300000000000000000000000000000000000000000000000000000000815260ff9091169181019190915273ffffffffffffffffffffffffffffffffffffffff90911690636fa08af39060240160206040518083038186803b158015611cd657600080fd5b505afa158015611cea573d6000803e3d6000fd5b505050506040513d601f19601f82011682018060405250810190611d0e91906125f2565b90505b6002850154600090606490611d3190829062010000900461ffff1661263e565b61ffff1687600301548461ffff16611d499190612661565b611d539190612661565b611d5d919061269e565b60038701546002880154606491611d7d9162010000900461ffff16612661565b611d87919061269e565b611d9191906126d9565b600480546003546040517f23b872dd00000000000000000000000000000000000000000000000000000000815273ffffffffffffffffffffffffffffffffffffffff918216938101939093523360248401526044830184905292935091909116906323b872dd90606401602060405180830381600087803b158015611e1557600080fd5b505af1158015611e29573d6000803e3d6000fd5b505050506040513d601f19601f82011682018060405250810190611e4d91906125d0565b508451600287015460038801546004890154604080518c8152602081019590955260ff80851691860191909152610100808504821660608701526201000090940461ffff16608086015260a08501929092521660c08301523360e08301526001908201527febea08cae94449583286e8c7d521b8dd41dff5c8ee617ac5a4f07a23e6afbf5d906101200160405180910390a150505050505050565b6000805473ffffffffffffffffffffffffffffffffffffffff8381167fffffffffffffffffffffffff0000000000000000000000000000000000000000831681178455604051919092169283917f8be0079c531659141344cd1fd0a4f28419497f9722a3daafe3b4186f6b6457e09190a35050565b6040805160208082018990527fff0000000000000000000000000000000000000000000000000000000000000060f889811b82168486015288901b166041830152604282018690526062808301869052835180840390910181526082830184528051908201207f19457468657265756d205369676e6564204d6573736167653a0a33320000000060a284015260be8084018290528451808503909101815260de90930190935281519101206000919060006120188286612044565b73ffffffffffffffffffffffffffffffffffffffff908116908c16149350505050979650505050505050565b600080600080612053856120e1565b6040805160008152602081018083528b905260ff8316918101919091526060810184905260808101839052929550909350915060019060a0016020604051602081039080840390855afa1580156120ae573d6000803e3d6000fd5b50506040517fffffffffffffffffffffffffffffffffffffffffffffffffffffffffffffffe00151979650505050505050565b60008060008351604114612151576040517f08c379a000000000000000000000000000000000000000000000000000000000815260206004820152601860248201527f696e76616c6964207369676e6174757265206c656e67746800000000000000006044820152606401610552565b50505060208101516040820151606090920151909260009190911a90565b82805461217b90612563565b90600052602060002090601f01602090048101928261219d57600085556121e3565b82601f106121b657805160ff19168380011785556121e3565b828001600101855582156121e3579182015b828111156121e35782518255916020019190600101906121c8565b506121ef9291506121f3565b5090565b5b808211156121ef57600081556001016121f4565b60006020828403121561221a57600080fd5b5035919050565b6000815180845260005b818110156122475760208185018101518683018201520161222b565b81811115612259576000602083870101525b50601f017fffffffffffffffffffffffffffffffffffffffffffffffffffffffffffffffe0169290920160200192915050565b85815260a0602082015260006122a560a0830187612221565b60ff9586166040840152938516606083015250921660809092019190915292915050565b803560ff811681146122da57600080fd5b919050565b600080604083850312156122f257600080fd5b82359150612302602084016122c9565b90509250929050565b600080600080600060a0868803121561232357600080fd5b85359450612333602087016122c9565b9350612341604087016122c9565b94979396509394606081013594506080013592915050565b7f4e487b7100000000000000000000000000000000000000000000000000000000600052604160045260246000fd5b600067ffffffffffffffff808411156123a3576123a3612359565b604051601f85017fffffffffffffffffffffffffffffffffffffffffffffffffffffffffffffffe0908116603f011681019082821181831017156123e9576123e9612359565b8160405280935085815286868601111561240257600080fd5b858560208301376000602087830101525050509392505050565b60006020828403121561242e57600080fd5b813567ffffffffffffffff81111561244557600080fd5b8201601f8101841361245657600080fd5b61246584823560208401612388565b949350505050565b61ffff8116811461180f57600080fd5b600080600080600080600060e0888a03121561249857600080fd5b873596506124a8602089016122c9565b95506040880135945060608801356124bf8161246d565b93506124cd608089016122c9565b92506124db60a089016122c9565b915060c088013567ffffffffffffffff8111156124f757600080fd5b8801601f81018a1361250857600080fd5b6125178a823560208401612388565b91505092959891949750929550565b60006020828403121561253857600080fd5b813573ffffffffffffffffffffffffffffffffffffffff8116811461255c57600080fd5b9392505050565b600181811c9082168061257757607f821691505b602082108114156125b1577f4e487b7100000000000000000000000000000000000000000000000000000000600052602260045260246000fd5b50919050565b6000602082840312156125c957600080fd5b5051919050565b6000602082840312156125e257600080fd5b8151801515811461255c57600080fd5b60006020828403121561260457600080fd5b815161255c8161246d565b7f4e487b7100000000000000000000000000000000000000000000000000000000600052601160045260246000fd5b600061ffff838116908316818110156126595761265961260f565b039392505050565b6000817fffffffffffffffffffffffffffffffffffffffffffffffffffffffffffffffff04831182151516156126995761269961260f565b500290565b6000826126d4577f4e487b7100000000000000000000000000000000000000000000000000000000600052601260045260246000fd5b500490565b600082198211156126ec576126ec61260f565b50019056fea26469706673582212205a790e4a76cfb34d930f639a907f5439282fcdf5d3886ad733389fbcb0388c6664736f6c63430008090033",
  "devdoc": {
    "kind": "dev",
    "methods": {
      "owner()": {
        "details": "Returns the address of the current owner."
      },
      "renounceOwnership()": {
        "details": "Leaves the contract without owner. It will not be possible to call `onlyOwner` functions anymore. Can only be called by the current owner. NOTE: Renouncing ownership will leave the contract without an owner, thereby removing any functionality that is only available to the owner."
      },
      "transferOwnership(address)": {
        "details": "Transfers ownership of the contract to a new account (`newOwner`). Can only be called by the current owner."
      }
    },
    "version": 1
  },
  "userdoc": {
    "kind": "user",
    "methods": {},
    "version": 1
  },
  "storageLayout": {
    "storage": [
      {
        "astId": 7,
        "contract": "contracts/Bet.sol:Bet",
        "label": "_owner",
        "offset": 0,
        "slot": "0",
        "type": "t_address"
      },
      {
        "astId": 1024,
        "contract": "contracts/Bet.sol:Bet",
        "label": "matchIds",
        "offset": 0,
        "slot": "1",
        "type": "t_struct(Counter)331_storage"
      },
      {
        "astId": 1027,
        "contract": "contracts/Bet.sol:Bet",
        "label": "betIds",
        "offset": 0,
        "slot": "2",
        "type": "t_struct(Counter)331_storage"
      },
      {
        "astId": 1029,
        "contract": "contracts/Bet.sol:Bet",
        "label": "treasury",
        "offset": 0,
        "slot": "3",
        "type": "t_address"
      },
      {
        "astId": 1031,
        "contract": "contracts/Bet.sol:Bet",
        "label": "agbToken",
        "offset": 0,
        "slot": "4",
        "type": "t_address"
      },
      {
        "astId": 1033,
        "contract": "contracts/Bet.sol:Bet",
        "label": "starTicket",
        "offset": 0,
        "slot": "5",
        "type": "t_address"
      },
      {
        "astId": 1038,
        "contract": "contracts/Bet.sol:Bet",
        "label": "idToMatchInfo",
        "offset": 0,
        "slot": "6",
        "type": "t_mapping(t_uint256,t_struct(MatchInfo)1086_storage)"
      },
      {
        "astId": 1043,
        "contract": "contracts/Bet.sol:Bet",
        "label": "idToBetInfo",
        "offset": 0,
        "slot": "7",
        "type": "t_mapping(t_uint256,t_struct(BetInfo)1105_storage)"
      }
    ],
    "types": {
      "t_address": {
        "encoding": "inplace",
        "label": "address",
        "numberOfBytes": "20"
      },
      "t_bool": {
        "encoding": "inplace",
        "label": "bool",
        "numberOfBytes": "1"
      },
      "t_mapping(t_uint256,t_struct(BetInfo)1105_storage)": {
        "encoding": "mapping",
        "key": "t_uint256",
        "label": "mapping(uint256 => struct Bet.BetInfo)",
        "numberOfBytes": "32",
        "value": "t_struct(BetInfo)1105_storage"
      },
      "t_mapping(t_uint256,t_struct(MatchInfo)1086_storage)": {
        "encoding": "mapping",
        "key": "t_uint256",
        "label": "mapping(uint256 => struct Bet.MatchInfo)",
        "numberOfBytes": "32",
        "value": "t_struct(MatchInfo)1086_storage"
      },
      "t_string_storage": {
        "encoding": "bytes",
        "label": "string",
        "numberOfBytes": "32"
      },
      "t_struct(BetInfo)1105_storage": {
        "encoding": "inplace",
        "label": "struct Bet.BetInfo",
        "members": [
          {
            "astId": 1088,
            "contract": "contracts/Bet.sol:Bet",
            "label": "betId",
            "offset": 0,
            "slot": "0",
            "type": "t_uint256"
          },
          {
            "astId": 1090,
            "contract": "contracts/Bet.sol:Bet",
            "label": "matchId",
            "offset": 0,
            "slot": "1",
            "type": "t_uint256"
          },
          {
            "astId": 1092,
            "contract": "contracts/Bet.sol:Bet",
            "label": "betType",
            "offset": 0,
            "slot": "2",
            "type": "t_uint8"
          },
          {
            "astId": 1094,
            "contract": "contracts/Bet.sol:Bet",
            "label": "betResult",
            "offset": 1,
            "slot": "2",
            "type": "t_uint8"
          },
          {
            "astId": 1096,
            "contract": "contracts/Bet.sol:Bet",
            "label": "oddsBet",
            "offset": 2,
            "slot": "2",
            "type": "t_uint16"
          },
          {
            "astId": 1098,
            "contract": "contracts/Bet.sol:Bet",
            "label": "amount",
            "offset": 0,
            "slot": "3",
            "type": "t_uint256"
          },
          {
            "astId": 1100,
            "contract": "contracts/Bet.sol:Bet",
            "label": "starTicketId",
            "offset": 0,
            "slot": "4",
            "type": "t_uint8"
          },
          {
            "astId": 1102,
            "contract": "contracts/Bet.sol:Bet",
            "label": "user",
            "offset": 1,
            "slot": "4",
            "type": "t_address"
          },
          {
            "astId": 1104,
            "contract": "contracts/Bet.sol:Bet",
            "label": "isClaim",
            "offset": 21,
            "slot": "4",
            "type": "t_bool"
          }
        ],
        "numberOfBytes": "160"
      },
      "t_struct(Counter)331_storage": {
        "encoding": "inplace",
        "label": "struct Counters.Counter",
        "members": [
          {
            "astId": 330,
            "contract": "contracts/Bet.sol:Bet",
            "label": "_value",
            "offset": 0,
            "slot": "0",
            "type": "t_uint256"
          }
        ],
        "numberOfBytes": "32"
      },
      "t_struct(MatchInfo)1086_storage": {
        "encoding": "inplace",
        "label": "struct Bet.MatchInfo",
        "members": [
          {
            "astId": 1077,
            "contract": "contracts/Bet.sol:Bet",
            "label": "itemId",
            "offset": 0,
            "slot": "0",
            "type": "t_uint256"
          },
          {
            "astId": 1079,
            "contract": "contracts/Bet.sol:Bet",
            "label": "matchCode",
            "offset": 0,
            "slot": "1",
            "type": "t_string_storage"
          },
          {
            "astId": 1081,
            "contract": "contracts/Bet.sol:Bet",
            "label": "firstHalfResult",
            "offset": 0,
            "slot": "2",
            "type": "t_uint8"
          },
          {
            "astId": 1083,
            "contract": "contracts/Bet.sol:Bet",
            "label": "secondHalfResult",
            "offset": 1,
            "slot": "2",
            "type": "t_uint8"
          },
          {
            "astId": 1085,
            "contract": "contracts/Bet.sol:Bet",
            "label": "fulltimeResult",
            "offset": 2,
            "slot": "2",
            "type": "t_uint8"
          }
        ],
        "numberOfBytes": "96"
      },
      "t_uint16": {
        "encoding": "inplace",
        "label": "uint16",
        "numberOfBytes": "2"
      },
      "t_uint256": {
        "encoding": "inplace",
        "label": "uint256",
        "numberOfBytes": "32"
      },
      "t_uint8": {
        "encoding": "inplace",
        "label": "uint8",
        "numberOfBytes": "1"
      }
    }
  }
}