{
  "address": "0xB0A701183f96e277aaD00B6c65846710d54D1Ce8",
  "abi": [
    {
      "inputs": [
        {
          "internalType": "address",
          "name": "_treasury",
          "type": "address"
        },
        {
          "internalType": "address",
          "name": "_agbToken",
          "type": "address"
        },
        {
          "internalType": "address",
          "name": "_starTicket",
          "type": "address"
        }
      ],
      "stateMutability": "nonpayable",
      "type": "constructor"
    },
    {
      "anonymous": false,
      "inputs": [
        {
          "indexed": false,
          "internalType": "uint256",
          "name": "betId",
          "type": "uint256"
        },
        {
          "indexed": false,
          "internalType": "uint256",
          "name": "matchId",
          "type": "uint256"
        },
        {
          "indexed": false,
          "internalType": "uint8",
          "name": "betType",
          "type": "uint8"
        },
        {
          "indexed": false,
          "internalType": "uint8",
          "name": "betResult",
          "type": "uint8"
        },
        {
          "indexed": false,
          "internalType": "uint16",
          "name": "oddsBet",
          "type": "uint16"
        },
        {
          "indexed": false,
          "internalType": "uint256",
          "name": "amount",
          "type": "uint256"
        },
        {
          "indexed": false,
          "internalType": "uint8",
          "name": "starTicketId",
          "type": "uint8"
        },
        {
          "indexed": false,
          "internalType": "address",
          "name": "user",
          "type": "address"
        },
        {
          "indexed": false,
          "internalType": "bool",
          "name": "isClaim",
          "type": "bool"
        }
      ],
      "name": "BetStatus",
      "type": "event"
    },
    {
      "anonymous": false,
      "inputs": [
        {
          "indexed": false,
          "internalType": "uint256",
          "name": "itemId",
          "type": "uint256"
        },
        {
          "indexed": false,
          "internalType": "string",
          "name": "matchCode",
          "type": "string"
        },
        {
          "indexed": false,
          "internalType": "uint8",
          "name": "firstHalfResult",
          "type": "uint8"
        },
        {
          "indexed": false,
          "internalType": "uint8",
          "name": "secondHalfResult",
          "type": "uint8"
        },
        {
          "indexed": false,
          "internalType": "uint8",
          "name": "fulltimeResult",
          "type": "uint8"
        }
      ],
      "name": "MatchStatus",
      "type": "event"
    },
    {
      "anonymous": false,
      "inputs": [
        {
          "indexed": true,
          "internalType": "address",
          "name": "previousOwner",
          "type": "address"
        },
        {
          "indexed": true,
          "internalType": "address",
          "name": "newOwner",
          "type": "address"
        }
      ],
      "name": "OwnershipTransferred",
      "type": "event"
    },
    {
      "inputs": [],
      "name": "agbToken",
      "outputs": [
        {
          "internalType": "address",
          "name": "",
          "type": "address"
        }
      ],
      "stateMutability": "view",
      "type": "function"
    },
    {
      "inputs": [],
      "name": "betIds",
      "outputs": [
        {
          "internalType": "uint256",
          "name": "_value",
          "type": "uint256"
        }
      ],
      "stateMutability": "view",
      "type": "function"
    },
    {
      "inputs": [
        {
          "internalType": "string",
          "name": "_matchCode",
          "type": "string"
        }
      ],
      "name": "createMatch",
      "outputs": [],
      "stateMutability": "nonpayable",
      "type": "function"
    },
    {
      "inputs": [
        {
          "internalType": "uint256",
          "name": "_matchId",
          "type": "uint256"
        },
        {
          "internalType": "uint8",
          "name": "_betType",
          "type": "uint8"
        },
        {
          "internalType": "uint256",
          "name": "_amount",
          "type": "uint256"
        },
        {
          "internalType": "uint256",
          "name": "_oddsBet",
          "type": "uint256"
        }
      ],
      "name": "getMessageHash",
      "outputs": [
        {
          "internalType": "bytes32",
          "name": "",
          "type": "bytes32"
        }
      ],
      "stateMutability": "pure",
      "type": "function"
    },
    {
      "inputs": [
        {
          "internalType": "uint256",
          "name": "",
          "type": "uint256"
        }
      ],
      "name": "idToBetInfo",
      "outputs": [
        {
          "internalType": "uint256",
          "name": "betId",
          "type": "uint256"
        },
        {
          "internalType": "uint256",
          "name": "matchId",
          "type": "uint256"
        },
        {
          "internalType": "uint8",
          "name": "betType",
          "type": "uint8"
        },
        {
          "internalType": "uint8",
          "name": "betResult",
          "type": "uint8"
        },
        {
          "internalType": "uint16",
          "name": "oddsBet",
          "type": "uint16"
        },
        {
          "internalType": "uint256",
          "name": "amount",
          "type": "uint256"
        },
        {
          "internalType": "uint8",
          "name": "starTicketId",
          "type": "uint8"
        },
        {
          "internalType": "address",
          "name": "user",
          "type": "address"
        },
        {
          "internalType": "bool",
          "name": "isClaim",
          "type": "bool"
        }
      ],
      "stateMutability": "view",
      "type": "function"
    },
    {
      "inputs": [
        {
          "internalType": "uint256",
          "name": "",
          "type": "uint256"
        }
      ],
      "name": "idToMatchInfo",
      "outputs": [
        {
          "internalType": "uint256",
          "name": "itemId",
          "type": "uint256"
        },
        {
          "internalType": "string",
          "name": "matchCode",
          "type": "string"
        },
        {
          "internalType": "uint8",
          "name": "firstHalfResult",
          "type": "uint8"
        },
        {
          "internalType": "uint8",
          "name": "secondHalfResult",
          "type": "uint8"
        },
        {
          "internalType": "uint8",
          "name": "fulltimeResult",
          "type": "uint8"
        }
      ],
      "stateMutability": "view",
      "type": "function"
    },
    {
      "inputs": [],
      "name": "matchIds",
      "outputs": [
        {
          "internalType": "uint256",
          "name": "_value",
          "type": "uint256"
        }
      ],
      "stateMutability": "view",
      "type": "function"
    },
    {
      "inputs": [],
      "name": "owner",
      "outputs": [
        {
          "internalType": "address",
          "name": "",
          "type": "address"
        }
      ],
      "stateMutability": "view",
      "type": "function"
    },
    {
      "inputs": [],
      "name": "renounceOwnership",
      "outputs": [],
      "stateMutability": "nonpayable",
      "type": "function"
    },
    {
      "inputs": [],
      "name": "starTicket",
      "outputs": [
        {
          "internalType": "address",
          "name": "",
          "type": "address"
        }
      ],
      "stateMutability": "view",
      "type": "function"
    },
    {
      "inputs": [
        {
          "internalType": "address",
          "name": "newOwner",
          "type": "address"
        }
      ],
      "name": "transferOwnership",
      "outputs": [],
      "stateMutability": "nonpayable",
      "type": "function"
    },
    {
      "inputs": [],
      "name": "treasury",
      "outputs": [
        {
          "internalType": "address",
          "name": "",
          "type": "address"
        }
      ],
      "stateMutability": "view",
      "type": "function"
    },
    {
      "inputs": [
        {
          "internalType": "uint256",
          "name": "_matchId",
          "type": "uint256"
        },
        {
          "internalType": "uint8",
          "name": "_result",
          "type": "uint8"
        }
      ],
      "name": "updateFirstHalf",
      "outputs": [],
      "stateMutability": "nonpayable",
      "type": "function"
    },
    {
      "inputs": [
        {
          "internalType": "uint256",
          "name": "_matchId",
          "type": "uint256"
        },
        {
          "internalType": "uint8",
          "name": "_result",
          "type": "uint8"
        }
      ],
      "name": "updateFulltime",
      "outputs": [],
      "stateMutability": "nonpayable",
      "type": "function"
    },
    {
      "inputs": [
        {
          "internalType": "uint256",
          "name": "_matchId",
          "type": "uint256"
        },
        {
          "internalType": "uint8",
          "name": "_result",
          "type": "uint8"
        }
      ],
      "name": "updateSecondHalf",
      "outputs": [],
      "stateMutability": "nonpayable",
      "type": "function"
    },
    {
      "inputs": [
        {
          "internalType": "uint256",
          "name": "_matchId",
          "type": "uint256"
        },
        {
          "internalType": "uint8",
          "name": "_betType",
          "type": "uint8"
        },
        {
          "internalType": "uint256",
          "name": "_amount",
          "type": "uint256"
        },
        {
          "internalType": "uint16",
          "name": "_oddsBet",
          "type": "uint16"
        },
        {
          "internalType": "uint8",
          "name": "_betResult",
          "type": "uint8"
        },
        {
          "internalType": "uint8",
          "name": "_starTicketId",
          "type": "uint8"
        },
        {
          "internalType": "bytes",
          "name": "_hashedMessage",
          "type": "bytes"
        }
      ],
      "name": "userBet",
      "outputs": [],
      "stateMutability": "nonpayable",
      "type": "function"
    },
    {
      "inputs": [
        {
          "internalType": "uint256",
          "name": "_betId",
          "type": "uint256"
        }
      ],
      "name": "userClaim",
      "outputs": [],
      "stateMutability": "nonpayable",
      "type": "function"
    }
  ],
  "transactionHash": "0x37cf6f58aab4c6ab24f0b90c7169be6645e8a0d19b62d1e501e1614e86336872",
  "args": [
    "0x3A50F08F2BA03677A479F4387eDe33C54454F356",
    "0xaf9412eFD48F534ecc06cA42391a7D3c49F92B66",
    "0x9666Cfb212590A2E1ea5f9609cACD279D3357256"
  ],
  "solcInputHash": "142a495d161c8bd9d5b383eea010ccdf",
  "bytecode": "0x60806040523480156200001157600080fd5b50604051620027dc380380620027dc8339810160408190526200003491620000ef565b6200003f3362000082565b600380546001600160a01b039485166001600160a01b03199182161790915560048054938516938216939093179092556005805491909316911617905562000139565b600080546001600160a01b038381166001600160a01b0319831681178455604051919092169283917f8be0079c531659141344cd1fd0a4f28419497f9722a3daafe3b4186f6b6457e09190a35050565b80516001600160a01b0381168114620000ea57600080fd5b919050565b6000806000606084860312156200010557600080fd5b6200011084620000d2565b92506200012060208501620000d2565b91506200013060408501620000d2565b90509250925092565b61269380620001496000396000f3fe608060405234801561001057600080fd5b506004361061011b5760003560e01c80638da5cb5b116100b2578063b5182fc211610081578063e388eeb111610066578063e388eeb1146103d8578063f2fde38b146103e2578063fe43efda146103f557600080fd5b8063b5182fc2146103a5578063bc0e7a74146103b857600080fd5b80638da5cb5b146103575780638e292aa8146103755780639fda6edc14610388578063b49bf5d91461039b57600080fd5b806361d027b3116100ee57806361d027b3146101ba57806362f8414b146101da578063715018a6146102d05780637d2f12bd146102d857600080fd5b806304f5b230146101205780632156430c1461014d5780633e1f9320146101625780635762b50c146101a7575b600080fd5b61013361012e366004612187565b610408565b60405161014495949392919061220b565b60405180910390f35b61016061015b36600461225e565b6104c9565b005b6005546101829073ffffffffffffffffffffffffffffffffffffffff1681565b60405173ffffffffffffffffffffffffffffffffffffffff9091168152602001610144565b6101606101b536600461234d565b610730565b6003546101829073ffffffffffffffffffffffffffffffffffffffff1681565b6102686101e8366004612187565b600760205260009081526040902080546001820154600283015460038401546004909401549293919260ff8083169361010080850483169462010000900461ffff169391928083169291820473ffffffffffffffffffffffffffffffffffffffff1691750100000000000000000000000000000000000000000090041689565b60408051998a5260208a019890985260ff96871697890197909752938516606088015261ffff909216608087015260a08601529190911660c084015273ffffffffffffffffffffffffffffffffffffffff1660e0830152151561010082015261012001610144565b6101606108dd565b6103496102e636600461239e565b6040805160208082019690965260f89490941b7fff00000000000000000000000000000000000000000000000000000000000000168482015260418401929092526061808401919091528151808403909101815260819092019052805191012090565b604051908152602001610144565b60005473ffffffffffffffffffffffffffffffffffffffff16610182565b61016061038336600461225e565b61096a565b61016061039636600461225e565b610c34565b6002546103499081565b6101606103b33660046123e9565b610f74565b6004546101829073ffffffffffffffffffffffffffffffffffffffff1681565b6001546103499081565b6101606103f0366004612492565b61166c565b610160610403366004612187565b61179c565b6006602052600090815260409020805460018201805491929161042a906124cf565b80601f0160208091040260200160405190810160405280929190818152602001828054610456906124cf565b80156104a35780601f10610478576101008083540402835291602001916104a3565b820191906000526020600020905b81548152906001019060200180831161048657829003601f168201915b5050506002909301549192505060ff808216916101008104821691620100009091041685565b60005473ffffffffffffffffffffffffffffffffffffffff16331461054f576040517f08c379a000000000000000000000000000000000000000000000000000000000815260206004820181905260248201527f4f776e61626c653a2063616c6c6572206973206e6f7420746865206f776e657260448201526064015b60405180910390fd5b6000600660008481526020019081526020016000206040518060a001604052908160008201548152602001600182018054610589906124cf565b80601f01602080910402602001604051908101604052809291908181526020018280546105b5906124cf565b80156106025780601f106105d757610100808354040283529160200191610602565b820191906000526020600020905b8154815290600101906020018083116105e557829003601f168201915b50505091835250506002919091015460ff80821660208401526101008204811660408085019190915262010000909204811660609093019290925282015191925016156106ab576040517f08c379a000000000000000000000000000000000000000000000000000000000815260206004820152601660248201527f46697273742068616c66207761732075706461746564000000000000000000006044820152606401610546565b600083815260066020908152604080832060020180547fffffffffffffffffffffffffffffffffffffffffffffffffffffffffffffff001660ff87161790559083015190517fccea705e41addfe441189b24872e69bc5ff6e968cd49909c25c36681f334e24e9261072392879290918791819061220b565b60405180910390a1505050565b60005473ffffffffffffffffffffffffffffffffffffffff1633146107b1576040517f08c379a000000000000000000000000000000000000000000000000000000000815260206004820181905260248201527f4f776e61626c653a2063616c6c6572206973206e6f7420746865206f776e65726044820152606401610546565b60006107bc60015490565b6040805160a08101825282815260208082018681526000838501819052606084018190526080840181905285815260068352939093208251815592518051949550919361080f92600185019201906120ee565b50604082015160029091018054606084015160809094015160ff90811662010000027fffffffffffffffffffffffffffffffffffffffffffffffffffffffffff00ffff958216610100027fffffffffffffffffffffffffffffffffffffffffffffffffffffffffffff000090931691909416171792909216179055610898600180546001019055565b7fccea705e41addfe441189b24872e69bc5ff6e968cd49909c25c36681f334e24e818360008060006040516108d195949392919061220b565b60405180910390a15050565b60005473ffffffffffffffffffffffffffffffffffffffff16331461095e576040517f08c379a000000000000000000000000000000000000000000000000000000000815260206004820181905260248201527f4f776e61626c653a2063616c6c6572206973206e6f7420746865206f776e65726044820152606401610546565b6109686000611e72565b565b60005473ffffffffffffffffffffffffffffffffffffffff1633146109eb576040517f08c379a000000000000000000000000000000000000000000000000000000000815260206004820181905260248201527f4f776e61626c653a2063616c6c6572206973206e6f7420746865206f776e65726044820152606401610546565b6000600660008481526020019081526020016000206040518060a001604052908160008201548152602001600182018054610a25906124cf565b80601f0160208091040260200160405190810160405280929190818152602001828054610a51906124cf565b8015610a9e5780601f10610a7357610100808354040283529160200191610a9e565b820191906000526020600020905b815481529060010190602001808311610a8157829003601f168201915b50505091835250506002919091015460ff80821660208401526101008204811660408085019190915262010000909204811660609093019290925282015191925016610b46576040517f08c379a000000000000000000000000000000000000000000000000000000000815260206004820152601a60248201527f46697273742068616c6620776173206e6f7420757064617465640000000000006044820152606401610546565b606081015160ff1615610bb5576040517f08c379a000000000000000000000000000000000000000000000000000000000815260206004820152601760248201527f5365636f6e642068616c662077617320757064617465640000000000000000006044820152606401610546565b600083815260066020908152604080832060020180547fffffffffffffffffffffffffffffffffffffffffffffffffffffffffffff00ff1661010060ff881602179055908301518382015191517fccea705e41addfe441189b24872e69bc5ff6e968cd49909c25c36681f334e24e93610723938893929091889161220b565b60005473ffffffffffffffffffffffffffffffffffffffff163314610cb5576040517f08c379a000000000000000000000000000000000000000000000000000000000815260206004820181905260248201527f4f776e61626c653a2063616c6c6572206973206e6f7420746865206f776e65726044820152606401610546565b6000600660008481526020019081526020016000206040518060a001604052908160008201548152602001600182018054610cef906124cf565b80601f0160208091040260200160405190810160405280929190818152602001828054610d1b906124cf565b8015610d685780601f10610d3d57610100808354040283529160200191610d68565b820191906000526020600020905b815481529060010190602001808311610d4b57829003601f168201915b50505091835250506002919091015460ff80821660208401526101008204811660408085019190915262010000909204811660609093019290925282015191925016610e10576040517f08c379a000000000000000000000000000000000000000000000000000000000815260206004820152601a60248201527f46697273742068616c6620776173206e6f7420757064617465640000000000006044820152606401610546565b606081015160ff16610e7e576040517f08c379a000000000000000000000000000000000000000000000000000000000815260206004820152601b60248201527f5365636f6e642068616c6620776173206e6f74207570646174656400000000006044820152606401610546565b608081015160ff1615610eed576040517f08c379a000000000000000000000000000000000000000000000000000000000815260206004820152601460248201527f46756c6c74696d652077617320757064617465640000000000000000000000006044820152606401610546565b60008381526006602090815260409182902060020180547fffffffffffffffffffffffffffffffffffffffffffffffffffffffffff00ffff166201000060ff87160217905582015182820151606084015192517fccea705e41addfe441189b24872e69bc5ff6e968cd49909c25c36681f334e24e936107239388939092909190889061220b565b6000600660008981526020019081526020016000206040518060a001604052908160008201548152602001600182018054610fae906124cf565b80601f0160208091040260200160405190810160405280929190818152602001828054610fda906124cf565b80156110275780601f10610ffc57610100808354040283529160200191611027565b820191906000526020600020905b81548152906001019060200180831161100a57829003601f168201915b50505091835250506002919091015460ff808216602084015261010082048116604084015262010000909104811660609092019190915290915060019088161580156110795750604082015160ff1615155b15611082575060005b60ff8816600114801561109b5750606082015160ff1615155b156110a4575060005b60ff881660021480156110bd5750608082015160ff1615155b156110c6575060005b8061112d576040517f08c379a000000000000000000000000000000000000000000000000000000000815260206004820152601f60248201527f546869732062657420696e666f726d6174696f6e20697320696e76616c6964006044820152606401610546565b61115d61114f60005473ffffffffffffffffffffffffffffffffffffffff1690565b8a8a8a8a61ffff1688611ee7565b9050806111c6576040517f08c379a000000000000000000000000000000000000000000000000000000000815260206004820152601d60248201527f5468697320626574207369676e617475726520697320696e76616c69640000006044820152606401610546565b60ff8416156112df576005546040517efdd58e00000000000000000000000000000000000000000000000000000000815233600482015260ff8616602482015260009173ffffffffffffffffffffffffffffffffffffffff169062fdd58e9060440160206040518083038186803b15801561124057600080fd5b505afa158015611254573d6000803e3d6000fd5b505050506040513d601f19601f820116820180604052508101906112789190612523565b116112df576040517f08c379a000000000000000000000000000000000000000000000000000000000815260206004820152601660248201527f53746172207469636b657420697320696e76616c6964000000000000000000006044820152606401610546565b60006112ea60025490565b90506040518061012001604052808281526020018b81526020018a60ff1681526020018760ff1681526020018861ffff1681526020018981526020018660ff1681526020013373ffffffffffffffffffffffffffffffffffffffff1681526020016000151581525060076000838152602001908152602001600020600082015181600001556020820151816001015560408201518160020160006101000a81548160ff021916908360ff16021790555060608201518160020160016101000a81548160ff021916908360ff16021790555060808201518160020160026101000a81548161ffff021916908361ffff16021790555060a0820151816003015560c08201518160040160006101000a81548160ff021916908360ff16021790555060e08201518160040160016101000a81548173ffffffffffffffffffffffffffffffffffffffff021916908373ffffffffffffffffffffffffffffffffffffffff1602179055506101008201518160040160156101000a81548160ff021916908315150217905550905050611482600280546001019055565b600480546003546040517f23b872dd000000000000000000000000000000000000000000000000000000008152339381019390935273ffffffffffffffffffffffffffffffffffffffff9081166024840152604483018b905216906323b872dd90606401602060405180830381600087803b15801561150057600080fd5b505af1158015611514573d6000803e3d6000fd5b505050506040513d601f19601f82011682018060405250810190611538919061253c565b5060ff8516156115ee576005546003546040517ff242432a00000000000000000000000000000000000000000000000000000000815233600482015273ffffffffffffffffffffffffffffffffffffffff918216602482015260ff881660448201526001606482015260a06084820152600060a482015291169063f242432a9060c401600060405180830381600087803b1580156115d557600080fd5b505af11580156115e9573d6000803e3d6000fd5b505050505b60408051828152602081018c905260ff8b811682840152888116606083015261ffff8a16608083015260a082018b9052871660c08201523360e0820152600061010082015290517febea08cae94449583286e8c7d521b8dd41dff5c8ee617ac5a4f07a23e6afbf5d918190036101200190a150505050505050505050565b60005473ffffffffffffffffffffffffffffffffffffffff1633146116ed576040517f08c379a000000000000000000000000000000000000000000000000000000000815260206004820181905260248201527f4f776e61626c653a2063616c6c6572206973206e6f7420746865206f776e65726044820152606401610546565b73ffffffffffffffffffffffffffffffffffffffff8116611790576040517f08c379a000000000000000000000000000000000000000000000000000000000815260206004820152602660248201527f4f776e61626c653a206e6577206f776e657220697320746865207a65726f206160448201527f64647265737300000000000000000000000000000000000000000000000000006064820152608401610546565b61179981611e72565b50565b6000818152600760209081526040808320600180820154855260068452828520835160a081019094528054845290810180549295949192918401916117e0906124cf565b80601f016020809104026020016040519081016040528092919081815260200182805461180c906124cf565b80156118595780601f1061182e57610100808354040283529160200191611859565b820191906000526020600020905b81548152906001019060200180831161183c57829003601f168201915b50505091835250506002919091015460ff80821660208401526101008083048216604085015262010000909204166060909201919091526004840154919250900473ffffffffffffffffffffffffffffffffffffffff163314611918576040517f08c379a000000000000000000000000000000000000000000000000000000000815260206004820152601d60248201527f596f7520617265206e6f74206f776e6572206f662074686973206265740000006044820152606401610546565b600282015460019060ff161580156119355750604082015160ff16155b1561193e575060005b600283015460ff16600114801561195a5750606082015160ff16155b15611963575060005b60028381015460ff1614801561197e5750608082015160ff16155b15611987575060005b80611a14576040517f08c379a000000000000000000000000000000000000000000000000000000000815260206004820152602160248201527f5468697320636c61696d20696e666f726d6174696f6e20697320696e76616c6960448201527f64000000000000000000000000000000000000000000000000000000000000006064820152608401610546565b60048301547501000000000000000000000000000000000000000000900460ff1615611a9c576040517f08c379a000000000000000000000000000000000000000000000000000000000815260206004820152600c60248201527f5573657220636c61696d656400000000000000000000000000000000000000006044820152606401610546565b600283015460009060ff16158015611ac7575060408301516002850154610100900460ff9081169116145b15611ad0575060015b600284015460ff166001148015611afa575060608301516002850154610100900460ff9081169116145b15611b03575060015b60028481015460ff16148015611b2c575060808301516002850154610100900460ff9081169116145b15611b35575060015b80611b9c576040517f08c379a000000000000000000000000000000000000000000000000000000000815260206004820152600860248201527f596f75206c6f73650000000000000000000000000000000000000000000000006044820152606401610546565b6004840180547fffffffffffffffffffff00ffffffffffffffffffffffffffffffffffffffffff811675010000000000000000000000000000000000000000001790915560009060ff1615611c9b576005546004868101546040517f6fa08af300000000000000000000000000000000000000000000000000000000815260ff9091169181019190915273ffffffffffffffffffffffffffffffffffffffff90911690636fa08af39060240160206040518083038186803b158015611c6057600080fd5b505afa158015611c74573d6000803e3d6000fd5b505050506040513d601f19601f82011682018060405250810190611c98919061255e565b90505b6002850154600090606490611cbb90829062010000900461ffff166125aa565b61ffff1687600301548461ffff16611cd391906125cd565b611cdd91906125cd565b611ce7919061260a565b60038701546002880154606491611d079162010000900461ffff166125cd565b611d11919061260a565b611d1b9190612645565b600480546003546040517f23b872dd00000000000000000000000000000000000000000000000000000000815273ffffffffffffffffffffffffffffffffffffffff918216938101939093523360248401526044830184905292935091909116906323b872dd90606401602060405180830381600087803b158015611d9f57600080fd5b505af1158015611db3573d6000803e3d6000fd5b505050506040513d601f19601f82011682018060405250810190611dd7919061253c565b508451600287015460038801546004890154604080518c8152602081019590955260ff80851691860191909152610100808504821660608701526201000090940461ffff16608086015260a08501929092521660c08301523360e08301526001908201527febea08cae94449583286e8c7d521b8dd41dff5c8ee617ac5a4f07a23e6afbf5d906101200160405180910390a150505050505050565b6000805473ffffffffffffffffffffffffffffffffffffffff8381167fffffffffffffffffffffffff0000000000000000000000000000000000000000831681178455604051919092169283917f8be0079c531659141344cd1fd0a4f28419497f9722a3daafe3b4186f6b6457e09190a35050565b60408051602080820188905260f887901b7fff000000000000000000000000000000000000000000000000000000000000001682840152604182018690526061808301869052835180840390910181526081830184528051908201207f19457468657265756d205369676e6564204d6573736167653a0a33320000000060a184015260bd8084018290528451808503909101815260dd9093019093528151910120600091906000611f988286611fc3565b73ffffffffffffffffffffffffffffffffffffffff908116908b161493505050509695505050505050565b600080600080611fd285612060565b6040805160008152602081018083528b905260ff8316918101919091526060810184905260808101839052929550909350915060019060a0016020604051602081039080840390855afa15801561202d573d6000803e3d6000fd5b50506040517fffffffffffffffffffffffffffffffffffffffffffffffffffffffffffffffe00151979650505050505050565b600080600083516041146120d0576040517f08c379a000000000000000000000000000000000000000000000000000000000815260206004820152601860248201527f696e76616c6964207369676e6174757265206c656e67746800000000000000006044820152606401610546565b50505060208101516040820151606090920151909260009190911a90565b8280546120fa906124cf565b90600052602060002090601f01602090048101928261211c5760008555612162565b82601f1061213557805160ff1916838001178555612162565b82800160010185558215612162579182015b82811115612162578251825591602001919060010190612147565b5061216e929150612172565b5090565b5b8082111561216e5760008155600101612173565b60006020828403121561219957600080fd5b5035919050565b6000815180845260005b818110156121c6576020818501810151868301820152016121aa565b818111156121d8576000602083870101525b50601f017fffffffffffffffffffffffffffffffffffffffffffffffffffffffffffffffe0169290920160200192915050565b85815260a06020820152600061222460a08301876121a0565b60ff9586166040840152938516606083015250921660809092019190915292915050565b803560ff8116811461225957600080fd5b919050565b6000806040838503121561227157600080fd5b8235915061228160208401612248565b90509250929050565b7f4e487b7100000000000000000000000000000000000000000000000000000000600052604160045260246000fd5b600067ffffffffffffffff808411156122d4576122d461228a565b604051601f85017fffffffffffffffffffffffffffffffffffffffffffffffffffffffffffffffe0908116603f0116810190828211818310171561231a5761231a61228a565b8160405280935085815286868601111561233357600080fd5b858560208301376000602087830101525050509392505050565b60006020828403121561235f57600080fd5b813567ffffffffffffffff81111561237657600080fd5b8201601f8101841361238757600080fd5b612396848235602084016122b9565b949350505050565b600080600080608085870312156123b457600080fd5b843593506123c460208601612248565b93969395505050506040820135916060013590565b61ffff8116811461179957600080fd5b600080600080600080600060e0888a03121561240457600080fd5b8735965061241460208901612248565b955060408801359450606088013561242b816123d9565b935061243960808901612248565b925061244760a08901612248565b915060c088013567ffffffffffffffff81111561246357600080fd5b8801601f81018a1361247457600080fd5b6124838a8235602084016122b9565b91505092959891949750929550565b6000602082840312156124a457600080fd5b813573ffffffffffffffffffffffffffffffffffffffff811681146124c857600080fd5b9392505050565b600181811c908216806124e357607f821691505b6020821081141561251d577f4e487b7100000000000000000000000000000000000000000000000000000000600052602260045260246000fd5b50919050565b60006020828403121561253557600080fd5b5051919050565b60006020828403121561254e57600080fd5b815180151581146124c857600080fd5b60006020828403121561257057600080fd5b81516124c8816123d9565b7f4e487b7100000000000000000000000000000000000000000000000000000000600052601160045260246000fd5b600061ffff838116908316818110156125c5576125c561257b565b039392505050565b6000817fffffffffffffffffffffffffffffffffffffffffffffffffffffffffffffffff04831182151516156126055761260561257b565b500290565b600082612640577f4e487b7100000000000000000000000000000000000000000000000000000000600052601260045260246000fd5b500490565b600082198211156126585761265861257b565b50019056fea26469706673582212200466ba07197cc757daf583164887702456c2f2646dea297cf9bc9d06437f713364736f6c63430008090033",
  "devdoc": {
    "kind": "dev",
    "methods": {
      "owner()": {
        "details": "Returns the address of the current owner."
      },
      "renounceOwnership()": {
        "details": "Leaves the contract without owner. It will not be possible to call `onlyOwner` functions anymore. Can only be called by the current owner. NOTE: Renouncing ownership will leave the contract without an owner, thereby removing any functionality that is only available to the owner."
      },
      "transferOwnership(address)": {
        "details": "Transfers ownership of the contract to a new account (`newOwner`). Can only be called by the current owner."
      }
    },
    "version": 1
  },
  "userdoc": {
    "kind": "user",
    "methods": {},
    "version": 1
  },
  "storageLayout": {
    "storage": [
      {
        "astId": 7,
        "contract": "contracts/Bet.sol:Bet",
        "label": "_owner",
        "offset": 0,
        "slot": "0",
        "type": "t_address"
      },
      {
        "astId": 2607,
        "contract": "contracts/Bet.sol:Bet",
        "label": "matchIds",
        "offset": 0,
        "slot": "1",
        "type": "t_struct(Counter)1890_storage"
      },
      {
        "astId": 2610,
        "contract": "contracts/Bet.sol:Bet",
        "label": "betIds",
        "offset": 0,
        "slot": "2",
        "type": "t_struct(Counter)1890_storage"
      },
      {
        "astId": 2612,
        "contract": "contracts/Bet.sol:Bet",
        "label": "treasury",
        "offset": 0,
        "slot": "3",
        "type": "t_address"
      },
      {
        "astId": 2614,
        "contract": "contracts/Bet.sol:Bet",
        "label": "agbToken",
        "offset": 0,
        "slot": "4",
        "type": "t_address"
      },
      {
        "astId": 2616,
        "contract": "contracts/Bet.sol:Bet",
        "label": "starTicket",
        "offset": 0,
        "slot": "5",
        "type": "t_address"
      },
      {
        "astId": 2621,
        "contract": "contracts/Bet.sol:Bet",
        "label": "idToMatchInfo",
        "offset": 0,
        "slot": "6",
        "type": "t_mapping(t_uint256,t_struct(MatchInfo)2669_storage)"
      },
      {
        "astId": 2626,
        "contract": "contracts/Bet.sol:Bet",
        "label": "idToBetInfo",
        "offset": 0,
        "slot": "7",
        "type": "t_mapping(t_uint256,t_struct(BetInfo)2688_storage)"
      }
    ],
    "types": {
      "t_address": {
        "encoding": "inplace",
        "label": "address",
        "numberOfBytes": "20"
      },
      "t_bool": {
        "encoding": "inplace",
        "label": "bool",
        "numberOfBytes": "1"
      },
      "t_mapping(t_uint256,t_struct(BetInfo)2688_storage)": {
        "encoding": "mapping",
        "key": "t_uint256",
        "label": "mapping(uint256 => struct Bet.BetInfo)",
        "numberOfBytes": "32",
        "value": "t_struct(BetInfo)2688_storage"
      },
      "t_mapping(t_uint256,t_struct(MatchInfo)2669_storage)": {
        "encoding": "mapping",
        "key": "t_uint256",
        "label": "mapping(uint256 => struct Bet.MatchInfo)",
        "numberOfBytes": "32",
        "value": "t_struct(MatchInfo)2669_storage"
      },
      "t_string_storage": {
        "encoding": "bytes",
        "label": "string",
        "numberOfBytes": "32"
      },
      "t_struct(BetInfo)2688_storage": {
        "encoding": "inplace",
        "label": "struct Bet.BetInfo",
        "members": [
          {
            "astId": 2671,
            "contract": "contracts/Bet.sol:Bet",
            "label": "betId",
            "offset": 0,
            "slot": "0",
            "type": "t_uint256"
          },
          {
            "astId": 2673,
            "contract": "contracts/Bet.sol:Bet",
            "label": "matchId",
            "offset": 0,
            "slot": "1",
            "type": "t_uint256"
          },
          {
            "astId": 2675,
            "contract": "contracts/Bet.sol:Bet",
            "label": "betType",
            "offset": 0,
            "slot": "2",
            "type": "t_uint8"
          },
          {
            "astId": 2677,
            "contract": "contracts/Bet.sol:Bet",
            "label": "betResult",
            "offset": 1,
            "slot": "2",
            "type": "t_uint8"
          },
          {
            "astId": 2679,
            "contract": "contracts/Bet.sol:Bet",
            "label": "oddsBet",
            "offset": 2,
            "slot": "2",
            "type": "t_uint16"
          },
          {
            "astId": 2681,
            "contract": "contracts/Bet.sol:Bet",
            "label": "amount",
            "offset": 0,
            "slot": "3",
            "type": "t_uint256"
          },
          {
            "astId": 2683,
            "contract": "contracts/Bet.sol:Bet",
            "label": "starTicketId",
            "offset": 0,
            "slot": "4",
            "type": "t_uint8"
          },
          {
            "astId": 2685,
            "contract": "contracts/Bet.sol:Bet",
            "label": "user",
            "offset": 1,
            "slot": "4",
            "type": "t_address"
          },
          {
            "astId": 2687,
            "contract": "contracts/Bet.sol:Bet",
            "label": "isClaim",
            "offset": 21,
            "slot": "4",
            "type": "t_bool"
          }
        ],
        "numberOfBytes": "160"
      },
      "t_struct(Counter)1890_storage": {
        "encoding": "inplace",
        "label": "struct Counters.Counter",
        "members": [
          {
            "astId": 1889,
            "contract": "contracts/Bet.sol:Bet",
            "label": "_value",
            "offset": 0,
            "slot": "0",
            "type": "t_uint256"
          }
        ],
        "numberOfBytes": "32"
      },
      "t_struct(MatchInfo)2669_storage": {
        "encoding": "inplace",
        "label": "struct Bet.MatchInfo",
        "members": [
          {
            "astId": 2660,
            "contract": "contracts/Bet.sol:Bet",
            "label": "itemId",
            "offset": 0,
            "slot": "0",
            "type": "t_uint256"
          },
          {
            "astId": 2662,
            "contract": "contracts/Bet.sol:Bet",
            "label": "matchCode",
            "offset": 0,
            "slot": "1",
            "type": "t_string_storage"
          },
          {
            "astId": 2664,
            "contract": "contracts/Bet.sol:Bet",
            "label": "firstHalfResult",
            "offset": 0,
            "slot": "2",
            "type": "t_uint8"
          },
          {
            "astId": 2666,
            "contract": "contracts/Bet.sol:Bet",
            "label": "secondHalfResult",
            "offset": 1,
            "slot": "2",
            "type": "t_uint8"
          },
          {
            "astId": 2668,
            "contract": "contracts/Bet.sol:Bet",
            "label": "fulltimeResult",
            "offset": 2,
            "slot": "2",
            "type": "t_uint8"
          }
        ],
        "numberOfBytes": "96"
      },
      "t_uint16": {
        "encoding": "inplace",
        "label": "uint16",
        "numberOfBytes": "2"
      },
      "t_uint256": {
        "encoding": "inplace",
        "label": "uint256",
        "numberOfBytes": "32"
      },
      "t_uint8": {
        "encoding": "inplace",
        "label": "uint8",
        "numberOfBytes": "1"
      }
    }
  }
}