{
  "address": "0x9A7878c53Dab89792d12d5B142E976601d2b9B2f",
  "abi": [
    {
      "inputs": [
        {
          "internalType": "address",
          "name": "_agbToken",
          "type": "address"
        }
      ],
      "stateMutability": "nonpayable",
      "type": "constructor"
    },
    {
      "anonymous": false,
      "inputs": [
        {
          "indexed": false,
          "internalType": "uint256",
          "name": "itemId",
          "type": "uint256"
        },
        {
          "indexed": false,
          "internalType": "uint256",
          "name": "price",
          "type": "uint256"
        },
        {
          "indexed": false,
          "internalType": "bool",
          "name": "isSold",
          "type": "bool"
        },
        {
          "indexed": false,
          "internalType": "bool",
          "name": "isCancel",
          "type": "bool"
        }
      ],
      "name": "MarketItemStatus",
      "type": "event"
    },
    {
      "inputs": [],
      "name": "agbToken",
      "outputs": [
        {
          "internalType": "address",
          "name": "",
          "type": "address"
        }
      ],
      "stateMutability": "view",
      "type": "function"
    },
    {
      "inputs": [
        {
          "internalType": "uint256",
          "name": "_itemId",
          "type": "uint256"
        }
      ],
      "name": "buy",
      "outputs": [],
      "stateMutability": "nonpayable",
      "type": "function"
    },
    {
      "inputs": [
        {
          "internalType": "uint256",
          "name": "_itemId",
          "type": "uint256"
        }
      ],
      "name": "cancel",
      "outputs": [],
      "stateMutability": "nonpayable",
      "type": "function"
    },
    {
      "inputs": [
        {
          "internalType": "uint256",
          "name": "",
          "type": "uint256"
        }
      ],
      "name": "idToMarketItem",
      "outputs": [
        {
          "internalType": "uint256",
          "name": "itemId",
          "type": "uint256"
        },
        {
          "internalType": "address",
          "name": "nftContract",
          "type": "address"
        },
        {
          "internalType": "uint256",
          "name": "tokenId",
          "type": "uint256"
        },
        {
          "internalType": "uint256",
          "name": "amount",
          "type": "uint256"
        },
        {
          "internalType": "address payable",
          "name": "seller",
          "type": "address"
        },
        {
          "internalType": "address payable",
          "name": "buyer",
          "type": "address"
        },
        {
          "internalType": "uint256",
          "name": "price",
          "type": "uint256"
        },
        {
          "internalType": "bool",
          "name": "isSold",
          "type": "bool"
        },
        {
          "internalType": "bool",
          "name": "isCanceled",
          "type": "bool"
        }
      ],
      "stateMutability": "view",
      "type": "function"
    },
    {
      "inputs": [],
      "name": "itemIds",
      "outputs": [
        {
          "internalType": "uint256",
          "name": "_value",
          "type": "uint256"
        }
      ],
      "stateMutability": "view",
      "type": "function"
    },
    {
      "inputs": [
        {
          "internalType": "address",
          "name": "",
          "type": "address"
        },
        {
          "internalType": "address",
          "name": "",
          "type": "address"
        },
        {
          "internalType": "uint256[]",
          "name": "",
          "type": "uint256[]"
        },
        {
          "internalType": "uint256[]",
          "name": "",
          "type": "uint256[]"
        },
        {
          "internalType": "bytes",
          "name": "",
          "type": "bytes"
        }
      ],
      "name": "onERC1155BatchReceived",
      "outputs": [
        {
          "internalType": "bytes4",
          "name": "",
          "type": "bytes4"
        }
      ],
      "stateMutability": "nonpayable",
      "type": "function"
    },
    {
      "inputs": [
        {
          "internalType": "address",
          "name": "",
          "type": "address"
        },
        {
          "internalType": "address",
          "name": "",
          "type": "address"
        },
        {
          "internalType": "uint256",
          "name": "",
          "type": "uint256"
        },
        {
          "internalType": "uint256",
          "name": "",
          "type": "uint256"
        },
        {
          "internalType": "bytes",
          "name": "",
          "type": "bytes"
        }
      ],
      "name": "onERC1155Received",
      "outputs": [
        {
          "internalType": "bytes4",
          "name": "",
          "type": "bytes4"
        }
      ],
      "stateMutability": "nonpayable",
      "type": "function"
    },
    {
      "inputs": [
        {
          "internalType": "address",
          "name": "nftContract",
          "type": "address"
        },
        {
          "internalType": "uint256",
          "name": "tokenId",
          "type": "uint256"
        },
        {
          "internalType": "uint256",
          "name": "amount",
          "type": "uint256"
        },
        {
          "internalType": "uint256",
          "name": "price",
          "type": "uint256"
        }
      ],
      "name": "sell",
      "outputs": [],
      "stateMutability": "nonpayable",
      "type": "function"
    },
    {
      "inputs": [
        {
          "internalType": "bytes4",
          "name": "interfaceId",
          "type": "bytes4"
        }
      ],
      "name": "supportsInterface",
      "outputs": [
        {
          "internalType": "bool",
          "name": "",
          "type": "bool"
        }
      ],
      "stateMutability": "view",
      "type": "function"
    }
  ],
  "transactionHash": "0x9ace38843114f71b4ede7c1be199db70bf84018edcd53dc59ac6cbc62c97bfcf",
  "args": [
    "0xaf9412eFD48F534ecc06cA42391a7D3c49F92B66"
  ],
  "solcInputHash": "369941c024dc939ef14d21a9f0f7b79c",
  "bytecode": "0x608060405234801561001057600080fd5b506040516112e33803806112e383398101604081905261002f91610059565b6001600055600280546001600160a01b0319166001600160a01b0392909216919091179055610089565b60006020828403121561006b57600080fd5b81516001600160a01b038116811461008257600080fd5b9392505050565b61124b806100986000396000f3fe608060405234801561001057600080fd5b50600436106100a25760003560e01c8063bc0e7a7411610076578063d96a094a1161005b578063d96a094a146101bd578063e61a70c0146101d0578063f23a6e61146102ae57600080fd5b8063bc0e7a741461010f578063bc197c811461015457600080fd5b8062b921cb146100a757806301ffc9a7146100c457806340e58ee5146100e757806392cdbac5146100fc575b600080fd5b6001546100b19081565b6040519081526020015b60405180910390f35b6100d76100d2366004610e94565b6102e6565b60405190151581526020016100bb565b6100fa6100f5366004610edd565b61037f565b005b6100fa61010a366004610f1f565b6106e7565b60025461012f9073ffffffffffffffffffffffffffffffffffffffff1681565b60405173ffffffffffffffffffffffffffffffffffffffff90911681526020016100bb565b61018c6101623660046110e4565b7fbc197c810000000000000000000000000000000000000000000000000000000095945050505050565b6040517fffffffff0000000000000000000000000000000000000000000000000000000090911681526020016100bb565b6100fa6101cb366004610edd565b610a4f565b61024b6101de366004610edd565b600360208190526000918252604090912080546001820154600283015493830154600484015460058501546006860154600790960154949673ffffffffffffffffffffffffffffffffffffffff948516969095939492831693929091169160ff8082169161010090041689565b60408051998a5273ffffffffffffffffffffffffffffffffffffffff98891660208b01528901969096526060880194909452918516608087015290931660a085015260c084019290925290151560e08301521515610100820152610120016100bb565b61018c6102bc36600461118e565b7ff23a6e610000000000000000000000000000000000000000000000000000000095945050505050565b60007fffffffff0000000000000000000000000000000000000000000000000000000082167f4e2312e000000000000000000000000000000000000000000000000000000000148061037957507f01ffc9a7000000000000000000000000000000000000000000000000000000007fffffffff000000000000000000000000000000000000000000000000000000008316145b92915050565b600260005414156103f1576040517f08c379a000000000000000000000000000000000000000000000000000000000815260206004820152601f60248201527f5265656e7472616e637947756172643a207265656e7472616e742063616c6c0060448201526064015b60405180910390fd5b600260009081558181526003602052604090206004015473ffffffffffffffffffffffffffffffffffffffff163314610486576040517f08c379a000000000000000000000000000000000000000000000000000000000815260206004820152601960248201527f53656e646572206d757374206265207468652073656c6c65720000000000000060448201526064016103e8565b600081815260036020526040902060070154610100900460ff1615610507576040517f08c379a000000000000000000000000000000000000000000000000000000000815260206004820152601760248201527f4974656d20686173206265656e2063616e63656c6c656400000000000000000060448201526064016103e8565b60008181526003602052604090206005015473ffffffffffffffffffffffffffffffffffffffff1615610596576040517f08c379a000000000000000000000000000000000000000000000000000000000815260206004820152601260248201527f4974656d20686173206265656e20736f6c64000000000000000000000000000060448201526064016103e8565b60008181526003602081905260408083206007810180547fffffffffffffffffffffffffffffffffffffffffffffffffffffffffffff00ff1661010017905560018101546002820154919093015491517ff242432a0000000000000000000000000000000000000000000000000000000081523060048201523360248201526044810191909152606481019190915260a0608482015260a481019290925273ffffffffffffffffffffffffffffffffffffffff169063f242432a9060c401600060405180830381600087803b15801561066e57600080fd5b505af1158015610682573d6000803e3d6000fd5b505050600082815260036020908152604080832060060154815186815292830152810191909152600160608201527fbc397c4e6885874702dc1949fb75792e30f071a1c4cd4ebb714c28134d0264c291506080015b60405180910390a1506001600055565b60026000541415610754576040517f08c379a000000000000000000000000000000000000000000000000000000000815260206004820152601f60248201527f5265656e7472616e637947756172643a207265656e7472616e742063616c6c0060448201526064016103e8565b6002600090815560015490506040518061012001604052808281526020018673ffffffffffffffffffffffffffffffffffffffff1681526020018581526020018481526020013373ffffffffffffffffffffffffffffffffffffffff168152602001600073ffffffffffffffffffffffffffffffffffffffff16815260200183815260200160001515815260200160001515815250600360008381526020019081526020016000206000820151816000015560208201518160010160006101000a81548173ffffffffffffffffffffffffffffffffffffffff021916908373ffffffffffffffffffffffffffffffffffffffff160217905550604082015181600201556060820151816003015560808201518160040160006101000a81548173ffffffffffffffffffffffffffffffffffffffff021916908373ffffffffffffffffffffffffffffffffffffffff16021790555060a08201518160050160006101000a81548173ffffffffffffffffffffffffffffffffffffffff021916908373ffffffffffffffffffffffffffffffffffffffff16021790555060c0820151816006015560e08201518160070160006101000a81548160ff0219169083151502179055506101008201518160070160016101000a81548160ff0219169083151502179055509050508473ffffffffffffffffffffffffffffffffffffffff1663f242432a333087876040518563ffffffff1660e01b81526004016109bc949392919073ffffffffffffffffffffffffffffffffffffffff94851681529290931660208301526040820152606081019190915260a06080820181905260009082015260c00190565b600060405180830381600087803b1580156109d657600080fd5b505af11580156109ea573d6000803e3d6000fd5b505050506109fc600180546001019055565b60408051828152602081018490526000818301819052606082015290517fbc397c4e6885874702dc1949fb75792e30f071a1c4cd4ebb714c28134d0264c29181900360800190a150506001600055505050565b60026000541415610abc576040517f08c379a000000000000000000000000000000000000000000000000000000000815260206004820152601f60248201527f5265656e7472616e637947756172643a207265656e7472616e742063616c6c0060448201526064016103e8565b600260009081558181526003602052604090206007015460ff1615610b3d576040517f08c379a000000000000000000000000000000000000000000000000000000000815260206004820152601260248201527f4974656d20686173206265656e20736f6c64000000000000000000000000000060448201526064016103e8565b600081815260036020526040902060070154610100900460ff1615610bbe576040517f08c379a000000000000000000000000000000000000000000000000000000000815260206004820152601760248201527f4974656d20686173206265656e2063616e63656c6c656400000000000000000060448201526064016103e8565b60008181526003602052604090206004015473ffffffffffffffffffffffffffffffffffffffff16331415610c4f576040517f08c379a000000000000000000000000000000000000000000000000000000000815260206004820152601060248201527f427579657220697320696e76616c69640000000000000000000000000000000060448201526064016103e8565b6002546000828152600360205260409081902060048082015460069092015492517f23b872dd000000000000000000000000000000000000000000000000000000008152339181019190915273ffffffffffffffffffffffffffffffffffffffff91821660248201526044810192909252909116906323b872dd90606401602060405180830381600087803b158015610ce757600080fd5b505af1158015610cfb573d6000803e3d6000fd5b505050506040513d601f19601f82011682018060405250810190610d1f91906111f3565b50600081815260036020819052604080832060018101546002820154919093015491517ff242432a0000000000000000000000000000000000000000000000000000000081523060048201523360248201526044810191909152606481019190915260a0608482015260a481019290925273ffffffffffffffffffffffffffffffffffffffff169063f242432a9060c401600060405180830381600087803b158015610dca57600080fd5b505af1158015610dde573d6000803e3d6000fd5b50505060008281526003602090815260408083206005810180547fffffffffffffffffffffffff000000000000000000000000000000000000000016331790556007810180547fffffffffffffffffffffffffffffffffffffffffffffffffffffffffffffff001660019081179091556006909101548251878152938401529082015260608101919091527fbc397c4e6885874702dc1949fb75792e30f071a1c4cd4ebb714c28134d0264c291506080016106d7565b600060208284031215610ea657600080fd5b81357fffffffff0000000000000000000000000000000000000000000000000000000081168114610ed657600080fd5b9392505050565b600060208284031215610eef57600080fd5b5035919050565b803573ffffffffffffffffffffffffffffffffffffffff81168114610f1a57600080fd5b919050565b60008060008060808587031215610f3557600080fd5b610f3e85610ef6565b966020860135965060408601359560600135945092505050565b7f4e487b7100000000000000000000000000000000000000000000000000000000600052604160045260246000fd5b604051601f82017fffffffffffffffffffffffffffffffffffffffffffffffffffffffffffffffe016810167ffffffffffffffff81118282101715610fce57610fce610f58565b604052919050565b600082601f830112610fe757600080fd5b8135602067ffffffffffffffff82111561100357611003610f58565b8160051b611012828201610f87565b928352848101820192828101908785111561102c57600080fd5b83870192505b8483101561104b57823582529183019190830190611032565b979650505050505050565b600082601f83011261106757600080fd5b813567ffffffffffffffff81111561108157611081610f58565b6110b260207fffffffffffffffffffffffffffffffffffffffffffffffffffffffffffffffe0601f84011601610f87565b8181528460208386010111156110c757600080fd5b816020850160208301376000918101602001919091529392505050565b600080600080600060a086880312156110fc57600080fd5b61110586610ef6565b945061111360208701610ef6565b9350604086013567ffffffffffffffff8082111561113057600080fd5b61113c89838a01610fd6565b9450606088013591508082111561115257600080fd5b61115e89838a01610fd6565b9350608088013591508082111561117457600080fd5b5061118188828901611056565b9150509295509295909350565b600080600080600060a086880312156111a657600080fd5b6111af86610ef6565b94506111bd60208701610ef6565b93506040860135925060608601359150608086013567ffffffffffffffff8111156111e757600080fd5b61118188828901611056565b60006020828403121561120557600080fd5b81518015158114610ed657600080fdfea26469706673582212200d1b8b9c17ba1c951269419ed3c5a14e5632512fe8af00c60722b36c8e2ab27964736f6c63430008090033",
  "devdoc": {
    "kind": "dev",
    "methods": {
      "buy(uint256)": {
        "params": {
          "_itemId": "id of market item"
        }
      },
      "sell(address,uint256,uint256,uint256)": {
        "params": {
          "amount": "amount sell",
          "nftContract": "nft contact for sell",
          "price": "price sell",
          "tokenId": "nft token id for sell"
        }
      },
      "supportsInterface(bytes4)": {
        "details": "See {IERC165-supportsInterface}."
      }
    },
    "version": 1
  },
  "userdoc": {
    "kind": "user",
    "methods": {
      "buy(uint256)": {
        "notice": "Buy nft"
      },
      "sell(address,uint256,uint256,uint256)": {
        "notice": "Sell nft"
      }
    },
    "version": 1
  },
  "storageLayout": {
    "storage": [
      {
        "astId": 10,
        "contract": "contracts/MarketPlace.sol:MarketPlace",
        "label": "_status",
        "offset": 0,
        "slot": "0",
        "type": "t_uint256"
      },
      {
        "astId": 1909,
        "contract": "contracts/MarketPlace.sol:MarketPlace",
        "label": "itemIds",
        "offset": 0,
        "slot": "1",
        "type": "t_struct(Counter)1786_storage"
      },
      {
        "astId": 1911,
        "contract": "contracts/MarketPlace.sol:MarketPlace",
        "label": "agbToken",
        "offset": 0,
        "slot": "2",
        "type": "t_address"
      },
      {
        "astId": 1945,
        "contract": "contracts/MarketPlace.sol:MarketPlace",
        "label": "idToMarketItem",
        "offset": 0,
        "slot": "3",
        "type": "t_mapping(t_uint256,t_struct(MarketItem)1940_storage)"
      }
    ],
    "types": {
      "t_address": {
        "encoding": "inplace",
        "label": "address",
        "numberOfBytes": "20"
      },
      "t_address_payable": {
        "encoding": "inplace",
        "label": "address payable",
        "numberOfBytes": "20"
      },
      "t_bool": {
        "encoding": "inplace",
        "label": "bool",
        "numberOfBytes": "1"
      },
      "t_mapping(t_uint256,t_struct(MarketItem)1940_storage)": {
        "encoding": "mapping",
        "key": "t_uint256",
        "label": "mapping(uint256 => struct MarketPlace.MarketItem)",
        "numberOfBytes": "32",
        "value": "t_struct(MarketItem)1940_storage"
      },
      "t_struct(Counter)1786_storage": {
        "encoding": "inplace",
        "label": "struct Counters.Counter",
        "members": [
          {
            "astId": 1785,
            "contract": "contracts/MarketPlace.sol:MarketPlace",
            "label": "_value",
            "offset": 0,
            "slot": "0",
            "type": "t_uint256"
          }
        ],
        "numberOfBytes": "32"
      },
      "t_struct(MarketItem)1940_storage": {
        "encoding": "inplace",
        "label": "struct MarketPlace.MarketItem",
        "members": [
          {
            "astId": 1923,
            "contract": "contracts/MarketPlace.sol:MarketPlace",
            "label": "itemId",
            "offset": 0,
            "slot": "0",
            "type": "t_uint256"
          },
          {
            "astId": 1925,
            "contract": "contracts/MarketPlace.sol:MarketPlace",
            "label": "nftContract",
            "offset": 0,
            "slot": "1",
            "type": "t_address"
          },
          {
            "astId": 1927,
            "contract": "contracts/MarketPlace.sol:MarketPlace",
            "label": "tokenId",
            "offset": 0,
            "slot": "2",
            "type": "t_uint256"
          },
          {
            "astId": 1929,
            "contract": "contracts/MarketPlace.sol:MarketPlace",
            "label": "amount",
            "offset": 0,
            "slot": "3",
            "type": "t_uint256"
          },
          {
            "astId": 1931,
            "contract": "contracts/MarketPlace.sol:MarketPlace",
            "label": "seller",
            "offset": 0,
            "slot": "4",
            "type": "t_address_payable"
          },
          {
            "astId": 1933,
            "contract": "contracts/MarketPlace.sol:MarketPlace",
            "label": "buyer",
            "offset": 0,
            "slot": "5",
            "type": "t_address_payable"
          },
          {
            "astId": 1935,
            "contract": "contracts/MarketPlace.sol:MarketPlace",
            "label": "price",
            "offset": 0,
            "slot": "6",
            "type": "t_uint256"
          },
          {
            "astId": 1937,
            "contract": "contracts/MarketPlace.sol:MarketPlace",
            "label": "isSold",
            "offset": 0,
            "slot": "7",
            "type": "t_bool"
          },
          {
            "astId": 1939,
            "contract": "contracts/MarketPlace.sol:MarketPlace",
            "label": "isCanceled",
            "offset": 1,
            "slot": "7",
            "type": "t_bool"
          }
        ],
        "numberOfBytes": "256"
      },
      "t_uint256": {
        "encoding": "inplace",
        "label": "uint256",
        "numberOfBytes": "32"
      }
    }
  }
}